:020000022000DC
:1070000000000420C17A0600F97A0600DD5D060062
:10701000FD7A0600E95D0600EF5D06000000000055
:10702000000000000000000000000000290903002B
:10703000057B060000000000C3090300D30903001C
:10704000B1BB0600491406000B7B06000B7B060053
:107050000B7B06000B7B06000B7B06000B7B060000
:107060000B7B06000B7B06000B7B06000B7B0600F0
:107070000B7B060045BD06000B7B06000D210600BC
:107080000B7B06000B7B06000B7B06000B7B0600D0
:107090000B7B06000B7B06000B7B06000B7B0600C0
:1070A0000B7B06000B7B06000B7B06000B7B0600B0
:1070B0000B7B06000B7B06000000000000000000B8
:1070C0000B7B06000B7B06000B7B06000B7B060090
:1070D0000B7B06000B7B06000B7B06000B7B060080
:1070E0000B7B06000B7B06000B7B060000000000FC
:1070F000000000000B7B0600000000000B7B060078
:1071000010B5054C237833B9044B13B10448AFF3E1
:1071100000800123237010BD68670020000000007C
:107120001860070008B5034B1BB103490348AFF3D0
:10713000008008BD000000006C6700201860070098
:10714000154B002B08BF134B9D46A3F5803A002139
:107150008B460F461348144A121A47F087FA0F4B12
:10716000002B00D098470E4B002B00D098470020F2
:10717000002104000D000D48002802D00C483FF00B
:10718000CDFB47F04DF9200029000BF075FC3FF0D6
:10719000C2FB00BF00000800000004200000000047
:1071A000D529030068670020507001201D69060082
:1071B0000000000006EE103ADFED136AB4EEE66A56
:1071C000F1EE10FA10B507EE102A044604DD0F495F
:1071D00009F067F9204610BDDFED0D7AB4EEE76ADD
:1071E000F1EE10FA01D50B49F2E7B4EEE67AF1EED2
:1071F00010FA01DD0849EBE7B4EEE77AF1EE10FA98
:107200004CBF06490649E3E76666663FD20C0700B5
:10721000666666BFDA0C0700E40C0700EF0C070097
:10722000F90C07001D4B1B68042B10B5044605DC48
:107230001B49204609F035F9204610BD194B1A4666
:10724000B2EC016A0921F0EE467AB0EE467AF2EC31
:10725000016AF4EE476AF1EE10FAF4EE676A48BF8D
:10726000B0EE667AF1EE10FAC8BFF0EE667A013938
:10727000EDD177EEC77A9FED0C7AF4EEC77AF1EE96
:1072800010FAD5D4D3ED097A084B0949F4EEC67A41
:10729000F1EE10FAD8BF1946CBE700BFB467002063
:1072A0009C3B0700886700206666E63F0B0D0700E1
:1072B000010D070004EE901A9FED266AB0EEE47A05
:1072C00005EE102A05EE903AB4EEC67AF1EE10FA09
:1072D00010B5F0EEC57A0446F0EEE56A0ED5F4EE90
:1072E000C67AF1EE10FA09D5F4EEC66AF1EE10FA9C
:1072F00004D5194909F0D5F8204610BDB4EEE77A57
:10730000F1EE10FA0EDBB4EEE67AF1EE10FA09DBDC
:10731000F5EEC04A1149124BF1EE10FAD8BF1946EA
:107320002046E7E7B4EEE77AF1EE10FA0BD8F4EE78
:10733000E67AF1EE10FA06DBB5EEC05AF1EE10FA7D
:107340000849094BEAE7F5EEC05AF1EE10FA074991
:10735000074BE3E70000C8429C3B0700160D0700FF
:10736000210D07002B0D0700330D07003D0D070011
:10737000480D07002DE9F047A64BA74C1868036895
:10738000A4B01B69984709F0F3F9236813339842B6
:1073900040F23D8109F0ECF92060A04800F0FBFDCF
:1073A00082469E4800F016FE81469C4800F031FE61
:1073B00005469A4800F04CFE8046984800F067FE6B
:1073C0000746964800F082FE954A9649136801EBFD
:1073D00083010133092BC3BF00231360924B136059
:1073E000C4BF01221A700D602B4651464A4606461C
:1073F00003A8FFF7DFFE06A8FFF714FF8B4906A8D6
:1074000009F021F918B906A9894809F05CF8414644
:1074100009A833463A46FFF74DFF844909A809F009
:1074200012F918B909A9834809F04DF8824983482F
:1074300008F0D6FE504645F061FF022402460B4696
:1074400000947E4808F0E0FF7D497C4808F0C8FEC3
:10745000484645F053FF009402460B46774808F033
:10746000D3FF7849754808F0BBFE284645F046FF33
:10747000009402460B46714808F0C6FF72496F48F7
:1074800008F0AEFE404645F039FF009402460B4638
:107490006A4808F0B9FF6D49684808F0A1FE38460F
:1074A00045F02CFF009402460B46644808F0ACFF00
:1074B0006749624808F094FE304645F01FFF00948B
:1074C0000B4602465D4808F09FFF62495B4808F0A2
:1074D00087FE03A9594808F07EFE5F49574808F027
:1074E0007FFE5349554808F076FE5C49534808F042
:1074F00077FE5049514808F083FE594912A808F018
:10750000D0FF224651460FA809F007F80FA912A88C
:1075100009F05EF8534909F067F822464946824669
:1075200015A808F0FAFF15A9504609F051F84E4980
:1075300009F05AF822462946814618A808F0EDFFBE
:1075400018A9484609F044F8484909F04DF8224680
:10755000054641461BA808F0E0FF1BA9284609F094
:1075600037F8434909F040F82246054639461EA837
:1075700008F0D3FF1EA9284609F02AF83D4909F072
:1075800033F822460546314621A808F0C6FF21A956
:10759000284609F01DF8384909F026F803A909F032
:1075A00017F8364909F020F8214909F011F8344953
:1075B00009F01AF81F4909F00BF801460CA808F069
:1075C00091FF21A808F022FF1EA808F01FFF1BA8AA
:1075D00008F01CFF18A808F019FF15A808F016FFFE
:1075E0000FA808F013FF12A808F010FF01220C9951
:1075F000244801F097F90CA808F008FF09A808F042
:1076000005FF06A808F002FF03A808F0FFFE24B05B
:10761000BDE8F087E80F070084670020E8670020D6
:10762000B467002088670020B06700209C3B0700FB
:10763000D0670020DC670020520D07006076002034
:10764000570D07005F0D0700670D0700710D07005C
:107650007B0D0700850D0700960D0700B10D070093
:10766000C30D0700C70D0700CC0D0700D10D0700A3
:10767000D80D0700DF0D0700E60D0700F40D070029
:10768000FA0D0700B8670020F7B51B4F1B4D1C48CB
:107690001C4C1D4E6A22002100F07CFB3946284616
:1076A00008F0FFFE2846194D224631463FF031F9D9
:1076B0003946284608F0F5FE2846154D2246314643
:1076C0003FF027F91349284601F0F4FA22461249FF
:1076D0002846124D3FF01DF90023009312229623F5
:1076E0000F49284601F004F90E492246284603B006
:1076F000BDE8F0403FF00DB99C3B0700D06700208B
:10770000E8670020006000200D040300DC67002013
:10771000C4670020880C0700498C0200B86700206D
:10772000AD0C07006588020010B54FF4E131224826
:1077300007F07CF9204807F0D9F90028FAD01F4853
:1077400000F096FD20B11E491B4808F063FDFEE7DE
:107750001C49194808F05EFD1B4B1C682368204635
:107760009B68984720B91949134808F053FDFEE774
:10777000174B18680368C8219B6898472368154908
:10778000DB6B2046984723681349DB6A20469847FD
:107790001249114801F0ACFA23680F491B6D2046CD
:1077A0009847236820465B6D98470D490248BDE81D
:1077B000104008F02FBD00BF60760020E867002071
:1077C000010E07001C0E0700E80F07002D0E070032
:1077D0002C110700410E0700C4670020B867002085
:1077E000590E070010B586B0C3688DF80F101868E1
:1077F000012203680092DC680DF10F010DF11703FF
:10780000A0479DF8170006B010BDF8B5427A03688E
:1078100004460E46CFB29B680D0A62B939469847B6
:10782000236860F307069B6829462046984760F363
:107830000F26B0B2F8BD29469847236860F30F269B
:107840009B6839462046984760F30706F1E713B571
:10785000C368186803680092DC680B46A04702B052
:1078600010BD70477047C368186810B103685B6843
:1078700018477047704773B543686D469942044690
:1078800085E806000E4604D1BDF8042003899A421B
:107890000FD0E3689DF80420186808213BF0D1FB65
:1078A000E368314618683BF0E9FB0098AB886060FC
:1078B000238102B070BD10B5142104463FF050FA88
:1078C000204610BD37B5C5680446B5B904203FF061
:1078D0002FFAE060056054203FF02AFA4FF0FF33A2
:1078E000009394F9102094F9123094F91110054680
:1078F0003BF062FBE3681D6002E02B68002BEAD0DE
:1079000003B030BD10B5044606F0E0FF84423BBF33
:107910002401024B4FF0FF30185710BD14600020B7
:1079200038B50A20FFF7EEFF05460B20FFF7EAFF08
:1079300004460920FFF7E6FF094B0A4A1A604FF494
:107940008071002219815A60DA6098741D745C7429
:107950001846054A0549BDE838403EF0DABF00BF89
:10796000146800207C0E070000600020757802007B
:107970000020704770470368C9B21B681847490068
:107980000023C161C0F82C327047036801211B6BD2
:10799000184710B403689C6B0123A4465DF8044BA0
:1079A0006047D0F82C32B3F5807F1FBF5A1CC0F857
:1079B0002C22C01880F82C1114BF01200020704721
:1079C000D0F8280170477047C0F830127047C0F8EF
:1079D000341270470346D0F82801A8B1D3F8282103
:1079E00082B1D3F824211A4492F82000D3F824213C
:1079F0000132D2B2C3F82421D3F82821013AC3F8C6
:107A0000282170474FF0FF307047D0F828312BB154
:107A1000D0F82431184490F8200070474FF0FF3020
:107A20007047000010B5044B0360044600F50E706B
:107A30003FF0EEFC204610BDD00E070038B50446DE
:107A4000A8203FF075F994F9192094F9181005460B
:107A50003BF0D0F9656138BD70B5054688B0482067
:107A60000E463FF065F995F9192095F9181004466E
:107A70003BF0FAF920462C6171003BF011FA0C4BF7
:107A800007930C4B029300230393019501AB93E8FA
:107A9000070004AC84E80700214605F50E703FF0AE
:107AA00025FC079B13B19B682046984708B070BD22
:107AB000B00E07007F7C02000B6803604B684360D8
:107AC0008B688360704738B5D0F82C3214461A445E
:107AD000B2F5807F88BFC3F58074054600F59670C7
:107AE0002246184446F09AFDD5F82C322344C5F8B6
:107AF0002C32204638BD38B5044640690D4608B1E1
:107B00003BF09CF8206920B12946BDE838403BF0A5
:107B1000C5B938BD38B50446406910B10368DB68A3
:107B2000984723696BB104F50E7528463FF04EFC6B
:107B300028463FF095FC20694821BDE838403FF0D9
:107B40000FB938BD1FB50246D0F82C32D469406950
:107B500081F0010100913BB9012303AA21463BF0CA
:107B60009EF8C0B204B010BD02F5967221463BF0FB
:107B700077F8002814BF02200020F3E710B4D0E902
:107B8000013401686210E40701EB020048BF8A5823
:107B90005DF8044B48BFD3581847000073B54FF445
:107BA0007A730025C0E90153194B03600446C0E90C
:107BB00004550176427629464FF48072203046F013
:107BC00055FD144BC4F82051C4F838322946C4F886
:107BD0002451C4E98B55C4F82851C4F83452C4F870
:107BE000485204F51E703FF0D7FA04F523703FF0B9
:107BF00071FA04F50E76084B009330462B464FF48D
:107C0000006218213FF066FB204602B070BD00BF45
:107C1000D00E0700F8580700BC0E0700D0F8083156
:107C2000B3F5807F0DD0D0F80031C154D0F80031C9
:107C30000133DBB2C0F80031D0F808310133C0F8AD
:107C400008317047F0B5C3B083F0010300930646D6
:107C500015461346490002AA40693BF020F850B986
:107C600002AC67192036BC4206D014F8011B30461E
:107C7000FFF7D4FFF7E70025284643B0F0BD2DE914
:107C8000F0410446BCB000F12007002520693BF01C
:107C90000EF90328FAD8DFE800F03B021414D4F8F8
:107CA000343203B19847D4F82C2232B104F59671DE
:107CB00020693BF000F9C4F82C5220693BF003F92D
:107CC000E4E7C4F82051F022C4F824516946C4F80E
:107CD000285120693BF0EDF80026804646450BDA36
:107CE000D4F82831B3F5807F06D01DF80610384649
:107CF000FFF794FF0136F1E7D4F82831002BC5DDFA
:107D0000D4F83032002BC1D0D4F828019847BDE711
:107D100008F050FDBAE70000F8B50420FFF7F2FDC7
:107D200005460520FFF7EEFD104C114E2946114D7A
:107D300002462046FFF732FF3246294620463EF0F3
:107D4000E8FD1120FFF7DEFD07461020FFF7DAFD02
:107D5000094C024639462046FFF720FF32462946A5
:107D60002046BDE8F8403EF0D4BD00BF28680020A2
:107D700000600020257A02001C6B00206B234370FA
:107D80000A238370017009B942707047012908BF46
:107D90008270704710B50446FFF7F0FF012323718E
:107DA0004FF4FA63E3804FF4C873638140F2011328
:107DB000A381E381E382238340F2FF734FF4D07207
:107DC00063830A23228110216282A3836422002319
:107DD0002182A282A377E3842385204610BD000080
:107DE00038B5008A2DED028B400808EE101A45F0D8
:107DF00073FAF8EEC87A044617EE900A0D4645F07D
:107E00007DFA0CA3D3E9002345F0D0FA02460B46D5
:107E10002046294645F0CAFA0022054B45F0F0FB02
:107E200045F094FDBDEC028B38BD00BFAFF3008080
:107E300000408F4008AC1C5A643BAF3F07EE901ADD
:107E4000D0B5F8EEE77AC48817EE900AF52C17BF84
:107E50007D230224B4FBF3F4E4B245F04FFA002290
:107E60000A4B45F0A3FA064620460F4645F034FA81
:107E700002460B463046394645F098FA0022044B3C
:107E800045F0BEFB45F062FDD0BD00BF0080114053
:107E900000408F402DE9F8431E46037807460D4603
:107EA00014461BB1012B22D0002443E04178244822
:107EB000FFF765FD21462248FFF773FD2048FFF7D5
:107EC00064FD002839D1324679781D481C4FFFF7F0
:107ED00060FD2E443846FFF773FD0028E4D0B5421C
:107EE000E2D03846FFF776FD05F8010BF2E70021F6
:107EF0008078DFF8509008F0E7FC44F080011148EA
:107F0000FFF770FC05EB0608002445450AD0002168
:107F10004846FFF767FCFF2804BF0134E4B205F8C8
:107F2000010BF2E70121B878B4420CBF052400240C
:107F300008F0CAFC2046BDE8F8830124FAE700BF38
:107F40001C6B00201468002013B500230C46ADF80C
:107F5000043001A90223FFF79DFF9DF805209DF83D
:107F6000043043EA0223238002B010BD13B5282257
:107F70000DF106010446FFF7E7FF40B105280BBFEE
:107F8000E38C238D013301330CBFE3842385BDF9DA
:107F9000060002B010BD10B50446FFF7E7FF01462A
:107FA0002046BDE81040FFF71BBF13B52A220DF194
:107FB00006010446FFF7C8FF40B105280BBFE38C5C
:107FC000238D013301330CBFE3842385BDF9060003
:107FD00002B010BD10B50446FFF7E7FF014620468A
:107FE000BDE81040FFF7FCBE13B52C220DF10601D1
:107FF0000446FFF7A9FF40B105280BBFE38C238D92
:10800000013301330CBFE3842385BDF9060002B0C0
:1080100010BD10B50446FFF7E7FF01462046BDE856
:108020001040FFF7DDBE13B522220DF10601044614
:10803000FFF78AFF40B105280BBFE38C238D013386
:1080400001330CBFE3842385BDF9060002B010BDE7
:1080500010B50446FFF7E7FF01462046BDE8104093
:10806000FFF7ECBE13B524220DF106010446FFF71D
:108070006BFF40B105280BBFE38C238D0133013327
:108080000CBFE3842385BDF9060002B010BD10B516
:108090000446FFF7E7FF01462046BDE81040FFF722
:1080A000CDBE13B526220DF106010446FFF74CFFA5
:1080B00040B105280BBFE38C238D013301330CBF86
:1080C000E3842385BDF9060002B010BD10B5044657
:1080D000FFF7E7FF01462046BDE81040FFF7AEBEC0
:1080E0002DE9F041077805468846144647B1012F2F
:1080F00026D00026344688F800403046BDE8F0819E
:1081000041781B48FFF73BFC21461948FFF749FC23
:108110001748FFF73AFC6978154D061C4FF001022D
:10812000134818BF0126FFF734FC3C462846FFF7EA
:1081300047FC0028DFD02846FFF74CFCC4B2F5E727
:108140000021807808F0C0FB44F080010948FFF767
:1081500049FB00210748FFF745FB39460446A8784C
:1081600008F0B2FBFF2C14BF00260526C3E700BFB2
:108170001C6B00201468002037B5044601210F2035
:1081800008F062FB1E4B40F20332C3F820270121A6
:108190000F2008F099FB0A2008F0FCFA2578FDB1C1
:1081A000012D21D000238DF8063042F210739DF886
:1081B0000620013B0132D2B29BB28DF80620002B83
:1081C000F5D10F220DF107012046FFF789FF9DF839
:1081D00007006938012894BF0020012003B030BD9A
:1081E0000848FFF72BFCDDE70748FFF76BFB294644
:1081F000A07808F029FB2946A07808F065FBD1E7B4
:10820000000300501C6B002014680020F8B50578AE
:1082100004460F4616461DB1012D14D0002011E072
:1082200041781148FFF7ABFB39460F48FFF7B9FB20
:1082300031460D48FFF7B5FB0B48FFF7A6FB0030B2
:1082400018BF0120F8BD0021807808F03DFB3946B9
:108250000648FFF7C7FA31460448FFF7C3FA294634
:10826000A07808F031FBD9E71C6B002014680020CF
:1082700073B5054600268DF80560FFF77DFFAA7BE4
:108280008DF80560012A044657D1AB8A642B1ED0B5
:10829000C82B1ED0322B02D103238DF805302A8A39
:1082A0009DF80530042A17D0082A1AD0022A1BD1BB
:1082B0006A8A9DF80530B2F5D07F71D01ED81A2A8F
:1082C00068D014D80D2A34D043F0400333E00223A1
:1082D000E3E78DF80520E2E743F008038DF8053069
:1082E000E6E743F00C03F9E743F00403F6E7342A2A
:1082F00053D0D02AE8D143F050031CE040F602519D
:108300008A4253D00AD840F241318A424BD040F2DF
:108310007C618A42D8D163F07F030CE041F60421EE
:108320008A4246D043F212418A42CDD163F04F03D4
:1083300001E043F010038DF805309DF80520102171
:108340002846FFF763FF13220DF105012846FFF7CA
:10835000C7FE9DF80530EA7B03F07F03012A8DF804
:10836000053004BF63F07F038DF805309DF80520CC
:1083700013212846FFF74AFF00238DF805302B799B
:10838000012B34D1EB88F52B21D015D87D2B1BD0B8
:108390000C231AE043F02003CDE743F03003CAE793
:1083A00043F06003C7E743F07003C4E763F06F0373
:1083B000C1E763F05F03BEE7B3F5FA7F42D0B3F5E0
:1083C0007A7FE5D1082300E002238DF805302A8961
:1083D0009DF80530D02A4ED036D81A2A42D0342AF9
:1083E00043D00D2A44D143F010038DF805309DF899
:1083F000052011212846FFF709FF0F220DF1060184
:108400002846FFF76DFE2B7E012B05D19DF8063027
:10841000692B39D110232B8495F822307BB1192296
:108420000DF107012846FFF75BFE9DF80720192193
:1084300042F0200228468DF80720FFF7E7FE20468D
:1084400002B070BD0423C0E740F241318A4215D02A
:1084500040F27C618A4214D0B2F5D07F08D143F05B
:108460006003C2E743F02003BFE743F03003BCE7FB
:1084700043F04003B9E743F05003B6E743F070031D
:10848000B3E763F07F03B0E76A2BC5D14FF4807385
:10849000C1E7704710B55C2104463EF061FC204600
:1084A00010BD00000A4A02601F210022C0E9092114
:1084B000C0E90B228286C0E90E220264A0F84420A3
:1084C00080F84620C0E91222C0E91522704700BF9B
:1084D000280F070000231F22C0E90A23036380F846
:1084E0003530C0E90E33036480F84630C0E91233FA
:1084F000C0E9153370478B6A8362CB6AC3620B6B2A
:10850000036391F8343080F8343091F8353080F8D6
:1085100035308B6B8363CB6BC3630B6C0364B1F837
:108520004430A0F8443091F8463080F846308B6CE7
:108530008364CB6CC364B1F85030A0F850304B6DFD
:1085400043658B6D8365704708B5FFF7D4FF08BDA1
:1085500070B5054686B068460E4603F04DFCEC6CDF
:108560006846002CCCBF0234002403F084FC0230A7
:10857000241AA86A241808D4AC62AE64684603F0D2
:108580007AFCE864012006B070BD0020FBE710B55E
:10859000036C1BB190F8464084B90233941C1B1B3A
:1085A000846A1B1958BFC0E90F124FF000045BBF6B
:1085B00080F8464083622046012010BD0433EDE779
:1085C00030B5046C1CB190F846508DB902341D1DB5
:1085D000641B856A64195FBFC0E90F230123A0F8FB
:1085E000441080F8463056BF84620020184630BDE3
:1085F0000434ECE730B5846D002CCCBF0434002487
:108600001D1D641B856A64195DBFC0E91523A0F8B0
:1086100050108462002058BF012030BD70B505465F
:10862000806B0E4688B1047814B146F0DFFE841CDE
:10863000304646F0DBFE0230241AA86A24185DBFDB
:10864000AC62AE630120002070BD0446F0E790F8F4
:108650003530826A002B0CBF6FF0020300239B1899
:108660005FBF8362012380F8353080F8341054BF37
:1086700018460020704704307047406A704790F8F1
:108680003500704738B50446406AC0F11F03934275
:10869000154608DB0430204445F0C0FF626A2A44D6
:1086A0006262012038BD0020FCE770B50446406AD4
:1086B0000E461D4611460233C0F11F029A420FDBDF
:1086C00023186A1C1A71821C0630626220445E7193
:1086D0002A4645F0A3FF636A2B446362012070BD04
:1086E0000020FCE770B586B00546684603F084FBC1
:1086F000684603F0C0FB022804466846CCBF062645
:10870000022603F0B6FB2346024631462846FFF711
:10871000CCFF06B070BD13460A46FF21FFF7C5BF68
:1087200030B589B0054610461C46ADF800101A4613
:1087300001460DF1020045F071FFA31C6A46FF21BE
:108740002846FFF7B2FF09B030BD30B589B0054605
:1087500010461C46ADF800101A4601460DF1020005
:1087600045F05CFFA31C6A4616212846FFF79DFFD3
:1087700009B030BD07B501238DF807100DF10702D0
:108780001946FFF792FF03B05DF804FB70B505468C
:1087900010460E46144646F029FE22460346314650
:1087A0002846BDE87040FFF780BF70B50546084613
:1087B0000C4646F01BFE1D2807D9224628461D23DD
:1087C0000821BDE87040FFF770BF22462846092106
:1087D000BDE87040FFF7DABF38B5C16A002305462F
:1087E000436229B1026B1AB1BDE83840FFF74ABFB6
:1087F00095F835307BB395F834102846FFF7BAFF6B
:108800000446A96C21B12846FFF76CFF0440E4B28E
:10881000E96B61B12B6C53B195F84620EAB10A4679
:108820002846B5F84410FFF77BFF0440E4B26A6DB8
:1088300042B1AB6D33B1B5F850102846FFF785FF54
:108840000440E4B2A96B21B12846FFF7AEFF044013
:10885000E4B2204638BD0124D3E71A462846FFF784
:108860005AFFE2E70C4B10B504460360406838B18C
:1088700000F06CFA20B9606810B103685B68984733
:10888000A06838B100F0DFFF20B9A06810B103681C
:108890005B689847204610BD380F070010B50446A6
:1088A000FFF7E0FF20460C213EF05AFA204610BDAB
:1088B000064B10B5C0E9003100230446836011B1B6
:1088C000084600F03EFA204610BD00BF380F0700F2
:1088D000064B10B5036000230446C0E9013111B115
:1088E000084600F0ABFF204610BD00BF380F070060
:1088F0002DE9F3410446542098460E4617463EF0B3
:1089000017FA9DF820300093054643463A46314613
:1089100000F0F0FA29462046FFF7CAFF204602B0D1
:10892000BDE8F0810346406808B100F083BA98685A
:1089300008B101F001B87047406870477047000007
:10894000024B186803681B69184700BFD81207005C
:10895000024B186803685B69184700BFD81207000C
:1089600010B4054B01791B681A685469421D1846FA
:1089700023465DF8044B18472C11070010B50B4B2C
:108980000446186821790368621D9B6A98474FF670
:10899000FF739842014606D0054B18680268BDE88F
:1089A0001040926A104794F94B0010BD2C1107003B
:1089B000D812070010B54C2104463EF0D1F92046EC
:1089C00010BD000010B58AB04B7903938B790293E8
:1089D000CB7901930B7A009304464B7A8A7A054946
:1089E00005A846F079FC05A9204607F05AFD204667
:1089F0000AB010BD400F070007B5002306226946E4
:108A000005300093ADF8043045F0FAFD003018BF92
:108A1000012003B05DF804FB08B502790B799A4296
:108A200008D106220531053045F0EAFDB0FA80F0A4
:108A3000400908BD0020FCE710B50A4B0446186841
:108A400003681B699847236820461B6A984740B112
:108A5000054B217918680368621D5B6BBDE8104007
:108A6000184710BDD81207002C11070008B502796D
:108A70000B799A4208D106220531053045F0C0FD38
:108A8000003018BF012008BD0120FCE7064A026043
:108A90007F210022C272027380F84B10C0F80520BB
:108AA000A0F80920704700BF680F070010B50171DA
:108AB0000021C1720173064C04607F2180F84B10C5
:108AC0001168C0F805109288A0F8092010BD00BFF9
:108AD000680F0700F8B50F461249064607F0E1FC9B
:108AE000397B0024A1421ADD3B19A21C5D7B9B7BD4
:108AF000083B012B05F1FF350FD82946304607F01A
:108B0000A4FC0F343C440027BD4208DD14F8011BCF
:108B1000304607F052FD0137F6E7AC18E2E7304681
:108B2000F8BD00BF585207002DE9F04F85B08846C8
:108B300022490192834607F0B4FC0024A14698F82C
:108B40000C30A34235D908EB0403671CFFB25E7BEF
:108B500008EB07035B7B9A1E012A25D9063B012BF4
:108B600024D8102505FB05F30234009358FA84F449
:108B70004FF0000A731EEAB2534517DD019989458B
:108B80000CD1114604F10D000393029203F076F923
:108B90000146584607F0B0FCDDE90223009909F1CF
:108BA0000109AA440C44E7E70225DBE73E44F4B29E
:108BB000C5E7584605B0BDE8F08F00BF5852070022
:108BC00010B500220446FFF7AFFF204610BD08B5E0
:108BD000134602798A4208D106221946053045F02B
:108BE0000FFDB0FA80F0400908BD0020FCE710B589
:108BF0000446012000FA01F1E1722273194604F1E2
:108C00000D0045F00BFD9DF9083084F84B3010BD88
:108C100070B50D461146C27A42F010020446C27287
:108C2000007B0D302A4620441E4645F0F7FC237B8E
:108C300084F84B601D44257370BDC37A13F0180F80
:108C400014BF0120002070470C4B10B50446036090
:108C5000406838B100F07AF820B9606810B1036854
:108C60005B689847A06838B100F0EDFD20B9A068B6
:108C700010B103685B689847204610BD9C0F070041
:108C800010B50446FFF7E0FF20460C213EF068F8DF
:108C9000204610BD064B10B5C0E900310023044644
:108CA000836011B1084600F04CF8204610BD00BFAB
:108CB0009C0F070070B5044630200E463EF038F891
:108CC0003146054600F0F4FC29462046FFF7E2FF56
:108CD000204670BD0346406808B100F029B8986886
:108CE00008B100F0A9BD0148704700BF5852070005
:108CF000406808B100F01ABD70474068704770477F
:108D00000020704710B5202104463EF029F8204687
:108D100010BD000010B5054B044640F8043B03F0BD
:108D20006BF80023E361204610BD00BFAC0F0700C5
:108D3000043003F09CB8043003F09BB8043003F017
:108D40009AB8C3690133C36118467047C369013BD0
:108D5000C3611846704742F60300704790F8200040
:108D6000704790F821007047406A7047806A7047EA
:108D7000808D70472DE9F041436A9A42A8BF1A4698
:108D80000446828592B2806A0F4645F047FC94F80B
:108D90002E300BB1636AA38594F8203098060FD566
:108DA000A28E91070CD51F4B218E186803685D6D4C
:108DB0000131A38DA26AAC4689B2BDE8F04160479B
:108DC000DA0609D5A38EDB0706D5164B218E186867
:108DD000036801311D6DECE794F83230F3B1124BAA
:108DE0001868036821465B6A9847104B1D682B681A
:108DF00001461E6BA38D3A462846B047094B1868BA
:108E000003681B6B984748B9094B186803689B684F
:108E1000984718B12B6828465B6D9847A08DBDE830
:108E2000F08100BF2C11070078120700E80F07003F
:108E30002C12070038B5054608460C4646F0D6FA0F
:108E4000214602462846BDE83840FFF793BF018619
:108E50007047008E7047008E013080B27047806B83
:108E60007047836B994208D2C36B0022914202D0B3
:108E70005B680132FAE7186870470020704700000D
:108E800030B5114B03600B7903710B4601F14904B6
:108E900053F8052FC0F805209B88A0F80930CB7A3D
:108EA000C3720B7B037300F10D0201F10D0353F844
:108EB000045B42F8045BA342F9D11B88138091F94B
:108EC0004B3080F84B3030BD680F070038B5044692
:108ED00008200D463DF02CFF0023C0E900536368D5
:108EE0002BB960602368A0600133236038BDA3689C
:108EF0005860F7E770B504461D461646FFF70AFFAF
:108F0000B5F5007F194B23602B46A8BF4FF40073C3
:108F1000002163629DF810302684A18584F82E30EC
:108F20002163A186C4E90E112164102204F14400DA
:108F300045F09CFB16F0300F11D02C203DF0F8FED0
:108F40000B490646022304F1340200F0D7F83046FC
:108F5000FFF7F7FE314604F13800FFF7B7FF284668
:108F600045F0EAFAA062204670BD00BFC80F0700B6
:108F7000B80F070070B50446406800252368AB426F
:108F800006D9466808213DF0EBFE01353046F5E78D
:108F90000023C4E90033A36070BD0000154B70B519
:108FA000044603600025A36B9D4212D2E36B0022AE
:108FB000954202D05B680132FAE71E683046FFF73F
:108FC000C5FE20B91EB1336830465B68984701354D
:108FD000E9E704F138052846FFF7CCFFA06A08B19D
:108FE00045F0B2FA2846FFF7C5FF2046FFF787FE97
:108FF000204670BDC80F070010B50446FFF7CEFF2E
:10900000204654213DF0ACFE204610BDF0B5C56CA5
:1090100097B0044617461E467DB103A8FFF730FF00
:1090200021466846FFF744FC694603A8A8476846FE
:10903000FFF718FC03A8FFF781FCA16A1C9A3944CA
:10904000304645F0EBFA17B0F0BD70B504460E4659
:109050001146012280F8332096B01A46FFF78AFEA7
:10906000256D85B1314603A8FFF70AFF2146684602
:10907000FFF71EFC694603A8A8476846FFF7F2FB06
:1090800003A8FFF75BFC16B070BD30B5838E02F00D
:109090000302934297B0044617D08286002A0CBF81
:1090A00044224022024455687DB103A8FFF7E8FE40
:1090B00021466846FFF7FCFB694603A8A8476846B7
:1090C000FFF7D0FB03A8FFF739FC17B030BD4FF412
:1090D0002450704710B5034B03600446FFF70FFEA2
:1090E000204610BDDC0F070010B50446FFF7F2FF65
:1090F00020462C213DF034FE204610BD70B50446BC
:109100001D461646FFF706FE064B2360B5F5007FA9
:10911000A8BF4FF4007500232662656223852046B0
:1091200070BD00BFDC0F0700406A7047006A7047DF
:1091300001857047024B186803681B69184700BF18
:10914000D8120700024B186803685B69184700BF14
:10915000D812070010B5064B186803681B699847BA
:10916000044B18680368BDE810401B6B184700BF2C
:10917000D81207002C11070010B5064B18680368B9
:109180001B699847044B18680368BDE81040DB6B07
:10919000184700BFD81207002C110700024B1868AF
:1091A00003689B6C184700BF2C1107000C307047F8
:1091B00068307047024B186803681B69184700BF86
:1091C00078120700024B186803685B69184700BFF4
:1091D00078120700024B186803689B69184700BFA4
:1091E00078120700024B186803681B69184700BF14
:1091F0002C120700024B186803685B69184700BF10
:109200002C120700024B186803685B6A184700BFFE
:109210002C12070010B5074B0446186803681B6939
:109220009847054B19680B682046DB6C9847204629
:1092300010BD00BFD81207002C11070010B5074B56
:109240000446186803681B699847054B19680B6842
:1092500020469B6A9847204610BD00BFD8120700E1
:109260002C120700024B18680368DB6A184700BF1E
:109270002C120700024B186803689B69184700BF4F
:10928000BC140700024B18680368DB69184700BF6D
:10929000BC140700024B186803681B6B184700BF1B
:1092A0002C120700024B18680368DB68184700BFE0
:1092B0002C110700024B186803681B6A184700BF8F
:1092C000BC140700024B186803685B6A184700BFAC
:1092D000BC140700024B1B68C3F8F010704700BFB6
:1092E000D8120700024B1B68C3F8F810704700BF84
:1092F000D8120700024B1B68C3F8F410704700BF78
:10930000D8120700024B1B68C3F8EC10704700BF6F
:10931000D8120700024B1B68C3F8FC10704700BF4F
:10932000D8120700024B1B68C3F80011704700BF3A
:10933000D8120700024B18680368D3F89C3018470E
:10934000D8120700024B18680368D3F8A0301847FA
:10935000D8120700F0B52A4B1D682B6887B0044669
:109360009B6828469847064620B923682046DB6854
:1093700098470DE0642007F00DFA2B6828469B699A
:109380009847064638B123682046DB689847002690
:10939000304607B0F0BD05AA2B6801920DF112020C
:1093A0000092DF6904AA0DF10E030DF10D012846AC
:1093B000B8470028D9D12B684FF0FF32D96A284628
:1093C0006FF0404388470028CFD12B6840F2FF322E
:1093D000196B28460023884706460028D3D12B68FE
:1093E0000DF10F025B6B0DF116012846984700281E
:1093F000BBD1044B186803689B6898470126C7E7F0
:10940000D8120700781207000A4B10B504461868F6
:109410000368DB689847084B18680368DB6898475F
:1094200004F10C00FFF756F804F16800BDE81040A5
:10943000FFF750B878120700D812070010B58CB0AB
:1094400000230593ADF81830104B044618680368E4
:1094500005A91B6A98479DF8143003939DF81530B1
:1094600002939DF8163001939DF8173000939DF8F4
:1094700019209DF81830064907A845F02DFF07A9C7
:10948000204607F00EF820460CB010BDD812070099
:10949000400F07000C30FFF75BB870B50368044657
:1094A00008469D6AFFF716FC2B4601462046BDE89C
:1094B000704018470C30FFF79DB80C30FFF767B8C5
:1094C0000C30FFF77DB86830FFF7A8B86830FFF7B9
:1094D0003BB810B500F10C042046FFF735F82046E4
:1094E000FFF7CDF828B920460621BDE81040FFF768
:1094F000AEB810BD2DE9F74300F10C050446683401
:109500002846FFF769F92046FFF766F90E4B1E68FB
:1095100033682846DF68FFF7AEF880462846FFF735
:10952000ACF805462046FFF7A6F881462046FFF72F
:10953000A4F8C0B200904B46EAB241463046B84764
:1095400003B0BDE8F08300BF2C1207007FB5094BC4
:109550001C682368164601A89D6906F0C3FF3246C1
:1095600001A92046A847044601A806F04FFF20465F
:1095700004B070BD2C1207007FB5094B1C6823682E
:10958000164601A8DD6906F0ADFF324601A9204666
:10959000A847044601A806F039FF204604B070BD74
:1095A0002C1207007FB5094B1C682368164601A8DA
:1095B0001D6A06F097FF324601A92046A8470446D7
:1095C00001A806F023FF204604B070BD2C1207004E
:1095D00002290BBF044B054B186818680BBF0368C2
:1095E00003685B6B9B6D18472C1207002C1107005A
:1095F00038B50446084B44F80C3B05462046FEF7B8
:1096000051FF05F16800FEF74DFF06212046FFF7E8
:109610001EF8284638BD00BFF40F070010B5054CF2
:109620002046FFF7E5FF2046034A0449BDE8104005
:109630003DF06FB9106E00200060002041960200DE
:1096400010B5064B044640F8683BFEF722FF04F1D4
:109650000C00FEF71EFF204610BD00BFF40F0700F0
:1096600010B50446FFF7ECFF2046C4213DF078FB1F
:10967000204610BD10B50B4B19680B6894B001A8BB
:10968000DB6C984701A8FFF7B7F948B101A8FFF7CD
:1096900075F9044601A8FFF751F9204614B010BD32
:1096A0007F24F7E72C1107004FF42050704700008B
:1096B00010B50446FFF72EFB044B23600023C4E9DA
:1096C0000833C4E90A33204610BD00BFC0100700AC
:1096D000018442847047008C7047408C7047406A18
:1096E0007047436A994208D2836A0022914202D0AD
:1096F0005B680132FAE7186870470020704738B598
:10970000044608460D46FFF71CFB08203DF010FB01
:109710000023C0E90053A36A2BB9A062636AE06228
:109720000133636238BDE36A5860F7E710B5044659
:109730000846FFF701F9014620B12046BDE8104078
:10974000FFF7DDBF10BD70B50446406800252368F3
:10975000AB4206D9466808213DF002FB0135304690
:10976000F5E70023C4E90033A36070BD10B50446DB
:109770002430FFF7E8FF0023236210BD134B70B5C0
:10978000044603600025636A9D4212D2A36A002248
:10979000954202D05B680132FAE71E683046FFF757
:1097A000D5FA20B91EB1336830465B689847013559
:1097B000E9E72046FFF7DAFF04F12400FFF7C3FFD3
:1097C0002046FFF79CFA204670BD00BFC01007007E
:1097D00010B50446FFF7D2FF204630213DF0C0FA15
:1097E000204610BD10B5044B044640F8043B06F07B
:1097F0000DFE204610BD00BFD410070010B5044672
:10980000FFF7F0FF204614213DF0AAFA204610BDD4
:1098100038B504462546074B45F8043B0846114633
:1098200002F02CFB0146284606F03BFE0023236194
:10983000204638BDD41007004068704703690133E3
:109840000361184670470369013B0361184670477E
:1098500038B504461D46FFF7DBFF0C4B2360BDF80F
:109860001030E382BDF814302383BDF818306383D1
:109870004FF480720023A582C4E90733A284C4E9AF
:109880000A33C4E90C33204638BD00BFE41007009A
:109890002DE9F0439846274B1E68336885B004468F
:1098A0000F469B6B818A30469146984718B9002035
:1098B00005B0BDE8F0833368A18A5B6C30469847F9
:1098C000033885B24D45A8BF4D462946E06945F0AD
:1098D000DDFBE0610028EAD0237E1A071CD5B8F131
:1098E000000F19D003AA33680192EAB20092D3F8AC
:1098F0006080628BA18A3B463046C0470028D7D0A3
:109900009DF80C30012BD2D02A463946E06944F04C
:1099100085FE25620120CBE75B07C8D53368A18AA5
:10992000EAB20092D3F86480628B3B463046C0476F
:10993000EAE700BF2C11070070B505460846164639
:109940000C4645F053FD3346024621462846BDE805
:109950007040FFF79DBF408B704738B504460846FE
:109960000D46FFF76BFF08203DF0E2F90023C0E948
:109970000053E36A2BB9E062A36A20630133A36258
:1099800038BD236B5860F7E770B504464068002582
:109990002368AB4206D9466808213DF0E1F901355C
:1099A0003046F5E70023C4E90033A36070BD0368C7
:1099B0008B4208D9436800228A4202D05B68013298
:1099C000FAE718687047002070470000F8B50546B0
:1099D000134B45F8283B04460026A36A9E420ED24C
:1099E00031462846FFF7E3FF0746FFF72CFF20B973
:1099F0001FB13B6838465B6898470136EDE728465B
:109A0000FFF7C2FFE06918B144F09EFD0023E36157
:109A10002846FFF7B9FF2046FFF7E4FE2046F8BDD1
:109A2000E410070010B50446FFF7D0FF20463821A8
:109A30003DF096F9204610BD70B50446036296B01D
:109A40000D46C0691946164645F020FBE06110B985
:109A5000206216B070BD01233146A384226A44F00F
:109A6000DDFD666B002EF4D0194B03932B798DF836
:109A700010302B4605F1490153F8052FCDF8112080
:109A80009B88ADF81530EB7A8DF817302B7B8DF86D
:109A900018300DF1190205F10D0353F8040B42F8CB
:109AA000040B8B42F9D11B88138095F84B308DF84D
:109AB000573021466846FEF70BFF694603A8B047BA
:109AC0006846FEF7CFFE03A8FEF738FFC1E700BFE8
:109AD000680F0700074B10B504460360806918B192
:109AE00044F032FD0023A3612046FFF77BFE2046B1
:109AF00010BD00BFF410070010B50446FFF7EAFFE1
:109B0000204620213DF02CF9204610BD38B50446F2
:109B10001D46FFF77DFE054B2360BDF81030E38244
:109B20000023A582C4E90633204638BDF41007009F
:109B3000034A02600022C0E90122C260704700BFF0
:109B40000411070038B5044608460D46FFF776FEB7
:109B500008203DF0EDF80023C0E90053A3682BB9BD
:109B6000A0606368E0600133636038BDE3685860FB
:109B7000F7E7406870474368994208D2836800223B
:109B8000914202D05B680132FAE718687047002002
:109B9000704770B50446406800252368AB4206D97B
:109BA000466808213DF0DCF801353046F5E7002332
:109BB000C4E90033A36070BD70B506460024736825
:109BC0009C4212D2B3680022944202D05B680132F8
:109BD000FAE71D682846FFF736FE20B91DB12B684D
:109BE00028465B6898470134E9E7301DFFF7D1FF4D
:109BF00070BD000038B50446054B44F8043B0546EB
:109C0000FFF7DAFF2046FFF7C4FF284638BD00BF44
:109C10000411070010B50446FFF7ECFF20461021A1
:109C20003DF09EF8204610BD38B504461D46FFF7AE
:109C3000EFFD084B2360BDF81030E382A582064992
:109C400004F1180006F02DFC0023C4E90933E36297
:109C5000204638BD1411070058520700808A70470B
:109C6000C08A7047406A7047436A994208D2836A43
:109C70000022914202D05B680132FAE7186870470F
:109C80000020704738B5044608460D46FFF7D6FD5C
:109C900008203DF04DF80023C0E90053A36A2BB91A
:109CA000A062636AE0620133636238BDE36A5860B0
:109CB000F7E770B50446406800252368AB4206D933
:109CC000466808213DF04CF801353046F5E70023A1
:109CD000C4E90033A36070BD154B70B50446036042
:109CE0000025636A9D4212D2A36A0022954202D0E7
:109CF0005B680132FAE71E683046FFF7A4FD20B921
:109D00001EB1336830465B6898470135E9E704F1D6
:109D100024052846FFF7CDFF2846FFF7CAFF04F1C8
:109D2000180006F073FB2046FFF75CFD204670BD6F
:109D30001411070010B50446FFF7CEFF204630216E
:109D40003DF00EF8204610BDA0F8A8107047C0F8EE
:109D5000AC1070472DE9FF41013A13F8014BD6B220
:109D60000268CDE90233526C05460F4690470C2C31
:109D700002462968029B79D02FD8052C69D01AD8C1
:109D8000022C60D00BD8012C53D006230093D1F8BD
:109D9000DC600023224639462846B0476EE0032C9B
:109DA00054D0042CF1D10093D1F894403346394675
:109DB0002846A04762E0092C52D007D8062C4BD089
:109DC000082CE2D10093D1F8A440EFE70A2C4DD043
:109DD0000B2CDAD1D1F8B4402DE0162C51D00FD88D
:109DE000112C40D005D8102CCFD10093D1F8B84019
:109DF000DCE7122C18D0132CC7D1D1F8C8401AE0D8
:109E00001D2C04D00CD8182C3FD01B2CBDD1009396
:109E1000D1F8D4803346224639462846C0472DE043
:109E20001E2C36D0522CB0D1CDE90063D1F8C460DD
:109E300020E0D1F88440324639462846A44604B092
:109E4000BDE8F0416047D1F88840F4E7D1F8904090
:109E5000F1E7D1F89C40EEE70093D1F8A040A5E7E8
:109E6000D1F8AC40E7E7D1F8C040E4E7CDE90063C2
:109E7000D1F8B060234639462846B04704B0BDE863
:109E8000F0810093D1F8CC4090E70093D1F8D04016
:109E90008CE7D1F8D840CEE700F18C034FF6FF7283
:109EA000B0F8B010914204D11C309842F8D1002093
:109EB00070470120704708B503689B6A98474FF6C2
:109EC000FF73C01A18BF012008BD000038B50A4B47
:109ED0000446186803681B690D469847204604F13C
:109EE0008C03B0F8B020AA4204D01C309842F8D1BC
:109EF000002038BD0120FCE7D812070000F18C03D8
:109F000090F9C820002A04DB1C309842F8D10020C8
:109F100070470120704770B5002300F1B0041C2584
:109F200005FB03F2A65A8E4203D11044B0F8C000DC
:109F300070BD0133052BF3D11720F9E71FB5ADF83C
:109F40000D200268009302248DF80C400323D2F800
:109F5000F04003AAA04704B010BD1FB5ADF809201A
:109F6000ADF80B30069A0368009204248DF808407F
:109F700002AAD3F8F0400523A04704B010BD1FB5D6
:109F8000ADF80B30BDF81830ADF80920ADF80D3044
:109F9000079A0368009210248DF8084002AAD3F8AB
:109FA000F0400723A04704B010BD1FB5ADF80B303B
:109FB000BDF81830ADF80920ADF80D30079A0368E8
:109FC000009208248DF8084002AAD3F8F040072335
:109FD000A04704B010BD012380F83C317047000059
:109FE0001FB5ADF80A309DF818308DF80C30084BCD
:109FF0008DF8092001208DF80800186802AA03686E
:10A000000092D3F8944004220523A04704B010BD69
:10A01000D812070001299CBF00EB8100C0F8542131
:10A0200070471FB5ADF80D20026800930A248DF823
:10A030000C400323D2F8F04003AAA04704B010BD9F
:10A04000F0B500231C2500F1B00605FB03F4375BD7
:10A050008F4204D00133052BF7D100200FE0B43438
:10A060000444911D14F8015B01F801599142F9D1A2
:10A070001C2202FB0303012093F8B3300B70F0BDE8
:10A0800010B5054B03600446D0F8400108B144F018
:10A090005BFA204610BD00BF3811070010B504461A
:10A0A000FFF7EEFF20464FF4AE713CF059FE20461C
:10A0B00010BD00002DE9F0431D4B1D688BB0062339
:10A0C0000F460421002490462A680097CDE9071323
:10A0D000C821CDE905410C21CDE90331CDE9018449
:10A0E0000646D2F854902346302260212846C847BD
:10A0F000D8B906F03DFB044606F03AFBD6F8AC3082
:10A10000001B98422B680DD21B692846984733687C
:10A1100042465B6B3946304698470028ECD00BB07E
:10A12000BDE8F083DB6D284698470020F7E700BFC5
:10A13000D8120700F8B503689B6A044698474FF6A3
:10A14000FF73984206461ED0104B1D682B680146CF
:10A15000D3F898302846984706F00AFB074606F0E1
:10A1600007FBD4F8AC30C01B98420CD22B682846B1
:10A170001B699847236831469B6B20469847002807
:10A18000EDD10120F8BD0020FCE700BFD812070088
:10A190002DE9F3410546089CA5F848111078C5F84B
:10A1A0004C41013085F84A01002085F850011948DA
:10A1B000066830680092D0F89480DBB20422304602
:10A1C0000F46C04724B306F0D3FA044606F0D0FA8F
:10A1D000D5F8AC30001B984214D2336830461B6966
:10A1E00098472B6839469B6B2846984750B195F89D
:10A1F00050010028EAD04FF6FF73A5F8483102B0AD
:10A20000BDE8F0814FF6FF73A5F848310020F6E76E
:10A210002046F4E7D81207002DE9F0479946036875
:10A220009B6A044698474FF6FF739842064604D14E
:10A230004FF000084046BDE8F08723680146D3F898
:10A24000E0302046984780460028F1D0002504F1F0
:10A25000B0031C2202FB05F7D95BB14234D127447D
:10A26000D7F8C4303BB910203CF062FD8246FFF7BE
:10A270005FFCC7F8C4A01C2303FB0545D5F8C450F8
:10A28000002DD5D02846B9F1000F21D1FFF794FC5D
:10A2900023682A46D3F8E47031464B462046B84737
:10A2A0000028C5D023682A46D3F8E8303146204636
:10A2B00098470028BCD023682A4631462046D3F868
:10A2C000EC30BDE8F04718470135052DC2D1AFE7A6
:10A2D000FFF74FFC002782465745D9DA3946284612
:10A2E000FFF749FCFFF7A8FA494645F059F800285E
:10A2F000A0D00137F0E7F0B5C5B004469DF828516D
:10A30000ADF80D200F4612218DF80C102A46194683
:10A310000DF10F0044F082F923684B9A0092D3F8B4
:10A32000F06003AAEB1C39462046B04745B0F0BDAB
:10A33000F0B5C5B004469DF82851ADF80D200F4684
:10A3400052218DF80C102A4619460DF10F0044F0E9
:10A3500065F9236800220092D3F8F06003AAEB1C91
:10A3600039462046B04745B0F0BD10B500F1C903ED
:10A3700000F2551033F8194C8C4201BF1C88148030
:10A380009C7894701C338342F4D1002010BD0000EF
:10A390002DE9F04196B004461C9E1F4600201C2368
:10A3A00004F1B00C4FF6FF7E03FB00F53CF805808E
:10A3B000F04505D001300528F6D116B0BDE8F08192
:10A3C0006019172380F8B220A0F8C030A0F8B010B0
:10A3D00080F8B37005F1B4033168E150E218B38836
:10A3E00093800DF10901721E731D12F8010F01F81F
:10A3F00001099A42F9D10F4B1868BA35036804EB8A
:10A400000508D3F89030424601A9984710B9605129
:10A41000A8F80400D4F85441002CCED03246394676
:10A4200003A8FEF743FB03A8A04703A8FEF786FA9C
:10A43000C3E700BFD81207002DE9F04106460F46DA
:10A44000904600F1B405002415F8013CBB420CD144
:10A4500006224146284644F0D3F830B91C2303FBBA
:10A460000464B4F8B000BDE8F0810134052C05F1B6
:10A470001C05E9D14FF6FF70F5E72DE9F0410646DE
:10A480000F46904600F1B405002415F8013CBB428C
:10A490000CD106224146284644F0B2F830B91C23BC
:10A4A00003FB0464D4F8C400BDE8F0810134052C3A
:10A4B00005F11C05E9D10020F6E738B54FF6FF722B
:10A4C00004460B460020B3F8B050954203D093F8F1
:10A4D000B250012D08D00130052803F11C03F2D140
:10A4E0002046FEF7D3FA0AE01C23434303F1B402EB
:10A4F0000B440A44204693F8B310FEF7D7FA2046DF
:10A5000038BD98B5B0F8A820D31DEC46DB08ACEBFD
:10A51000C30300AF9D460368D3F88C406B46A04749
:10A52000003018BF0120BD4698BD00002DE9F04F56
:10A5300087B002AF9146DFF890A0B96000F18C02BD
:10A540000546FA601C460026B5F8B080C7F804D06E
:10A550004FF6FF7398452BD0B5F8C030DA1D694629
:10A56000D208A1EBC202033B95469BB2A4B29C4227
:10A570004FF01B0228BF1C468DF80820BA68ADF8C2
:10A580000920494622460DF10B0044F047F8DAF85D
:10A5900000000DF1080B0268CDF800B0E31CD2F802
:10A5A00094B0DBB204224146D847D7F804D0013634
:10A5B000FB681C359D42C7D1002E14BF20460020E9
:10A5C0001437BD46BDE8F08FD81207002DE9F04FD3
:10A5D00087B002AFC7E9002100F5A072064600F17E
:10A5E000B405BA601C464FF0000935F804ACC7F852
:10A5F0000CD04FF6FF739A4542D0AB89DA1D6946FD
:10A60000D208A1EBC202033B95469BB2A4B29C4286
:10A610004FF01D0228BF1C468DF808207A68ADF85F
:10A620000920396822460DF10B0043F0F7FF0023A3
:10A6300086F83C31194BD3F800800DF1080BD8F89F
:10A640000020CDF800B0E31CD2F894B0DBB20422B5
:10A6500051464046D84796F83C316BB9D8F800309F
:10A6600040461B699847336815F8011C5B6B2A4606
:10A67000304698470028EED1D7F80CD009F10109EF
:10A68000BB681C35AB42B0D1B9F1000F14BF2046F6
:10A6900000201437BD46BDE8F08F00BFD812070078
:10A6A0002DE9F04F89B002AF042BFA603A6CC7F87D
:10A6B00008D0C7E9041014880AD003680422009265
:10A6C000D3F8DC502346A8471C37BD46BDE8F08FC1
:10A6D000FB6807336A46DB08A2EBC3039D460DF116
:10A6E000080805238DF80830002388F80130484B0E
:10A6F000013CD3F800A0A4B20225DAF8003050469D
:10A70000DB699847844258D23B6C5B88A34254D99A
:10A71000DAF8003021461B6A5046984703689B6868
:10A720008346984742F6030301349842A4B255D1B8
:10A730005846FEF790FB231A59425941DBF8003086
:10A7400079609B68584698477968024611B9B0F518
:10A75000245F45D15846C7E90012FEF7EFFAD7E962
:10A760000012022806460CBF0123022398F80100BC
:10A7700008B988F8013098F8010098421DD105F118
:10A7800002091FFA89F928F8054008EB090311B9F5
:10A79000B2F5245F27D158467B60FEF7CCFA7B6880
:10A7A00001463246184643F039FF09EB0605ADB2C3
:10A7B0000236FB682E44B3429FDA022D1CD17A691F
:10A7C0003B6C12681B880A210091D2F8DC40D7E963
:10A7D00004100422A047D7F808D075E70021ADE7A0
:10A7E00002260123C2E7DBF8003058469B689847F1
:10A7F000043528F80900DAE7064B18680368CDF835
:10A800000080D3F894403969EBB20422A047E2E714
:10A8100078120700D81207002DE9F04F89B002AF77
:10A82000052B3E6CC7F808D08346C7E9032134885E
:10A830000BD8036804220092D3F8DC50062223468A
:10A84000A8471C37BD46BDE8F08FFA680732694655
:10A85000D208A1EBC202954607228DF80820B288E3
:10A86000B2F5205F0DF1080A0DD0DBF80020338827
:10A870000A210091D2F8DC40396906225846A047E7
:10A88000D7F808D0DDE7063B9BB27B61274B013C44
:10A89000D3F80090B31DA4B201257B60D9F8003035
:10A8A0004846DB699847844232D27388A3422FD945
:10A8B000D9F8003021461B6A4846984703689B68D0
:10A8C00080469847B38883421BD14046FEF736FA4C
:10A8D0007B69984215D14046FEF72DFA7A6979686E
:10A8E00043F08EFE68B94046FEF7F5FE2AF80500F3
:10A8F0004046FEF7F2FEAB1C9BB204352AF803007B
:10A90000ADB2FA68EB1C9A4202DD0134A4B2C5E78D
:10A91000012DAAD0064B18680368CDF800A0D3F823
:10A9200094403969EBB20422A047A9E778120700E6
:10A93000D81207002DE9F04F89B002AF062BBA609C
:10A940003A6CC7F80CD081468B46158804D19388A1
:10A95000A3F52053012B0FD9D9F800301022009213
:10A96000D3F8DC402B4659464846A047D7F80CD0D0
:10A970001C37BD46BDE8F08FBB6807336A46DB086D
:10A98000A2EBC3039D4602AE11238DF808300023CD
:10A990007370364B013DD3F800A0ADB20224DAF853
:10A9A00000305046DB699847854247D23B6C5B8854
:10A9B000AB4243D9DAF8003029461B6A5046984723
:10A9C0003B6C02689B887B619268804690477B69FC
:10A9D000834230D14046FEF7B1F9022803460CBF4E
:10A9E000062314233B61737878610BB93B6973705C
:10A9F00073783A69934221D14046FEF76CFE30539A
:10AA00004046FEF76AFEA31C9BB20434A4B2F05287
:10AA1000331940467B60FEF78EF97B687A69014600
:10AA2000184643F0FBFD7B69BA681C443B69A4B23D
:10AA300023449A4202DB0135ADB2B0E7022C09D1C2
:10AA40003B6CD9F800201B880A210091D2F8DC4029
:10AA5000102288E7064B186803680096D3F89450D4
:10AA60000422E3B25946A84780E700BF78120700E6
:10AA7000D81207002DE9F04F89B002AF91463A6C29
:10AA8000C7F808D0062BC7E9031015880BD0036858
:10AA900004220092D3F8DC4008222B46A0471C3742
:10AAA000BD46BDE8F08F09F107036A46DB08A2EB5B
:10AAB000C3039D460DF1080809238DF808300023D3
:10AAC00088F801306D4B1B687B613B6C013D0433A2
:10AAD000ADB202247B607B6978691B68DB699847AB
:10AAE000854280F083803B6C5B88AB427ED97B697A
:10AAF00078691B6829461B6A984703689B68064665
:10AB000098473B6C9B888342336805F1010A1FFA22
:10AB10008AFA9B6830467AD1984742F603039842F6
:10AB20003DD13046FEF797F9824535D03046FEF7E5
:10AB300005F998F80120022803460CBF4FF0070BD7
:10AB40004FF0150B0AB988F801B098F801203B6066
:10AB50005A454BD128F804A03046FEF7FFF8A21C56
:10AB600092B2023508F80200E21C92B2304628F890
:10AB70000250FEF7E0F805343B68A4B208EB040588
:10AB80001A460146284643F049FD3B681C44A4B2DE
:10AB9000A344D9452ADB55460135ADB29BE733685E
:10ABA00030469B68984742F602139842F4D128F841
:10ABB00004A03046FEF7B8FA0234A4B2A9EB0409A7
:10ABC00080B21FFA89F9814528BF8146304608EBDB
:10ABD0000405FEF7ABFA4A4601464C44284609F103
:10ABE000020943F01BFDA4B288F80190022C38D171
:10ABF0003A693B6C12681B880A210091D2F8DC404C
:10AC0000D7E903100822A047D7F808D047E79847AC
:10AC100042F603039842BFD13046FEF78FF8022870
:10AC20008346B9D13046FEF786F85A460146786821
:10AC300043F0E6FC0028AFD128F804A03046FEF728
:10AC400097F80234A4B2A9EB04091FFA89F980B27B
:10AC5000814528BF8146304608EB0405FEF786F89B
:10AC6000B9E7074B18680368CDF80080D3F8945013
:10AC7000F968E3B20422A847C6E700BF78120700CC
:10AC8000D81207002DE9F043012B97B0044602AF1C
:10AC90000E461546E8460BD0036804220092D3F80E
:10ACA000DC4018220023A0475437BD46BDE8F0839E
:10ACB000B0F83E1141B33B6F1B78DB0724D5224B24
:10ACC0001868036801391B6A9847002281461C21D5
:10ACD00004F1B00001FB02F330F803C0B4452ED1FB
:10ACE00003F1B4022344224493F8B310381DFDF756
:10ACF000DDFE4846B4F84431D4F84021391DFEF752
:10AD0000A4F9381DFDF71AFE00230735A4F83E31DB
:10AD1000A4F84431ED086B46A3EBC5039D46192307
:10AD20008DF80830094B186802AA03680092D3F81E
:10AD30009440042201233146A047C546B4E70132BE
:10AD4000052AC7D1E0E700BF78120700D812070034
:10AD50002DE9F04F87B002AF032B04460D467A6011
:10AD60001E46C7F80CD00DD8036804220092D3F811
:10AD7000DC4016220023A047D7F80CD01437BD467C
:10AD8000BDE8F08FBB6B1B883B811FFA83F8BB6B60
:10AD9000B3F802B04B4BD3F80090D9F800304846D6
:10ADA000DB69984708F1FF318BB2834206D92368EB
:10ADB0000A220092D3F8DC60434620E0D9F8003044
:10ADC00048461B6A984703689B688146984742F645
:10ADD0000303984202D023680B22EAE74846FEF7B5
:10ADE0003AF840458246F6D14846FDF7B7FF0307DB
:10ADF0000AD4236803210091D3F8DC60534616225D
:10AE000029462046B047B7E7B4F83E31E3B9484693
:10AE10003B60FDF7A9FF01468246D4F8400144F0AB
:10AE200035F93B683A89A4F83E21C4F84001A4F8FA
:10AE300044315246194643F019FCB4F844315B459D
:10AE400007D023680722B4E75345F6D023680E21C4
:10AE5000D1E7331F5FFA83FA0BEB0A024846BA6068
:10AE6000FDF782FFBA6880B28242EADCBB6BD4F89D
:10AE700040015246191D584443F0D0FBB4F8442118
:10AE8000B96B0AEB0203A4F844317B6807336A46C6
:10AE9000DB08A2EBC3039D4617238DF8083032462A
:10AEA0000DF1090043F0BAFB074B186802AC0268C9
:10AEB0000094731CD2F89440DBB204222946A047C8
:10AEC0005AE700BF78120700D81207002DE9F04FAB
:10AED0009BB0012B8A46039263D9249A023B1688C1
:10AEE000059300F18C0204460292B4F8B030534549
:10AEF00042D1D4F8C450002D42D02846FEF739FE86
:10AF00004FF000098046C14536DA49462846FEF72B
:10AF100032FE0746FEF7A2FEB0422AD23846FEF7BE
:10AF20009FFEB04225D33846FEF79CFE249B023399
:10AF3000804604F1B4090025049345451CDA2946EE
:10AF40003846FEF791FE8346FEF705FDB0420ED16E
:10AF50004A4694F8B31007A8FDF7A8FD5846DDE966
:10AF6000042307A9FEF768FD07A8FDF7E7FC0135F4
:10AF7000E3E709F10109C6E7029B1C349C42B4D106
:10AF8000039B1D2B0DD11E238DF81C30064B18681A
:10AF900007AA03680092D3F8944004220123514683
:10AFA000A0471BB0BDE8F08FD81207002DE9F04F85
:10AFB0008FB002AFC7E90021FB60B0F8A830F96894
:10AFC00007336A46DB08A2EBC30307F118059D4669
:10AFD0008346284600F010FF0DF108090124BD60EA
:10AFE000DBF80030CDF804904FF420520092D3F8F3
:10AFF000BC5079684FF6FF7322465846A84705466D
:10B0000020B199F80030112B04D001203437BD460F
:10B01000BDE8F08F99F801307B61A3F104080223A9
:10B020005FFA88F809F102063B614FF6FF7A3B6947
:10B03000AB4204DB4FF6FF739A45D1D0E5E7FB68DE
:10B04000E3B930203BF074FE3146728831F8043B9E
:10B05000009204464246FEF7E7FD21463868FEF7B7
:10B0600071FD7488D7E904320134A4B2002C134472
:10B0700008BF4FF0000A3B611644D8E7B86800F0FB
:10B08000FAFE4045EDD1B86800F0F3FE42460146B5
:10B09000301D43F0B5FA0028D3D0E2E72DE9F04F98
:10B0A0008DB0B0F8A83004AFC7E9042107336A4671
:10B0B000DB08A2EBC3039D4682463869FEF759FDC3
:10B0C0000DF11009F8604FF00008FB6898454ADA66
:10B0D00041463869FEF74FFDB861FEF7BFFD0646F1
:10B0E000B869FEF7BDFDB860DAF80030CDF804901D
:10B0F00042F603020092D3F8A8407969BB68324651
:10B100005046A047054678B399F80030092B27D15F
:10B1100099F80130FB61053BDBB27B6009F1020469
:10B120004FF0020BAB45DFDA38203BF001FEB4F8FC
:10B1300003300293A37801932388009306467B692A
:10B140007A68611DFEF784FB3146B869FEF79AFD07
:10B15000B4F80360FB690136B6B29B441C44E1E7D6
:10B1600008F10108B1E701202437BD46BDE8F08FA2
:10B170002DE9F04F8FB0B0F8A83002AF0733C7E920
:10B180000421DB086A46A2EBC3039D4602AB82465C
:10B190003869FB62FEF7EDFC4FF0000BF860FB68CE
:10B1A0009B456CDA59463869FEF7E5FC7862FEF794
:10B1B00057FDB860786AFEF755FD431E38620026D9
:10B1C0007B603B6A9E4257DA3146786AFEF74CFD57
:10B1D0007B68F8619E4248D0711C786AFEF744FD96
:10B1E0000546F869FEF7B7FB013084B2002D3ED06A
:10B1F0002846FEF7B0FBB862BB6AA3423AD3DAF83E
:10B200000030FA6A0092D3F898507969BB6A2246F6
:10B210005046A847054698B3FB6A1B78052B29D1F1
:10B22000FB6A93F801904FEA8903BB61FB6A4FF018
:10B23000020903F10208A945E1DA20203BF078FD7C
:10B240004146044631F8023B00937B690222FEF737
:10B250005DFC2146F869FEF780FBB8F80040BB6949
:10B260000134A4B299449844E5E70025B9E7BB68E6
:10B27000BB62C1E70136A4E70BF1010B8FE70120A8
:10B280003437BD46BDE8F08F70B5002300F1B0043F
:10B290001C2505FB03F2A65A8E4204D00133052B70
:10B2A000F7D1002003E0104490F8C800C00970BD39
:10B2B000F0B5022A85B004460D4609D00368042281
:10B2C0000092D3F8DC4002220023A04705B0F0BD75
:10B2D0001B88B0F8A8209A4228BF1A46B030002335
:10B2E0001C2606FB03F1475AAF4212D10C44A4F8C6
:10B2F000C020ADF80D20094A032310688DF80C30EA
:10B30000026803A90091D2F8944029460422A0477C
:10B31000DCE70133052BE4D1EBE700BFD8120700CF
:10B32000F0B5002300F1B0051C2606FB03F42F5BEB
:10B330008F4204D00133052BF7D1002003E02044D5
:10B3400080F8C8200120F0BD042A15D1B0F84821AA
:10B350008A4211D190F84A211978013A8A420BD1D8
:10B36000D0F84C2101211170D0F84C211B68C2F893
:10B370000130052380F850317047022AF0B51ED104
:10B38000002200F1B0051C2606FB02F42F5B8F4261
:10B3900016D104441A88A4F8C020B0F848218A4283
:10B3A0000DD190F84A21032A09D1D0F84C110A7026
:10B3B000D0F84C111B88A1F8013080F85021F0BD65
:10B3C0000132052AE0D1E8E7012A38B504461546DE
:10B3D00013D9B0F8480188420FD194F84A010528E2
:10B3E0000BD1D4F84C110870D4F84C011946013037
:10B3F000013543F013F984F8505138BD012A38B5AE
:10B400000446154613D9B0F8480188420FD194F884
:10B410004A0111280BD1D4F84C110870D4F84C0112
:10B4200019460130013543F0F9F884F8505138BD20
:10B4300038B50446B0F84801884215460FD194F853
:10B440004A110B290BD1D4F84C010170D4F84C01EE
:10B4500019460130013543F0E1F884F8505138BD08
:10B4600038B5044615469AB1B0F8480188420FD164
:10B4700094F84A0109280BD1D4F84C110870D4F87B
:10B480004C0119460130013543F0C8F884F8505199
:10B4900038BD6AB9B0F848318B4209D190F84A31C9
:10B4A000132B01BFD0F84C211370012380F85031C9
:10B4B0007047F0B500241C2500F1B00605FB04F32D
:10B4C000F75A8F4204D00134052CF7D1002006E052
:10B4D000C9331488C452C11893788B700120F0BD11
:10B4E000F0B500241C2500F1B00605FB04F3F75A63
:10B4F0008F4204D00134052CF7D1002006E0B4338C
:10B50000184403681360838893800120F0BDF0B570
:10B5100000241C2500F1B00605FB04F3F75A8F4206
:10B5200004D00134052CF7D1002009E0BA330344DC
:10B530001C46002114F8010B18B901310629F9D174
:10B54000F0BD196811609B8893800120F8E7000026
:10B5500070B5054690F8850094B0F8B1104B114CC9
:10B560001868B4F84410036801391B6A984704F15D
:10B570004702064694F8461001A8FDF797FA94F89A
:10B580004D3004F14E0201A93046FDF75EFD01A8E1
:10B59000FDF7D4F9002385F88530012014B070BD83
:10B5A00078120700D46E00202DE9F04F9DB0984628
:10B5B00002AFB8F10A0F92460446796197F89020DD
:10B5C000D7F89430C7F80CD00FD1022A17D00368EF
:10B5D00004220092D3F8DC4042460023A047D7F86B
:10B5E0000CD06C37BD46BDE8F08F042A07D0036845
:10B5F00004220092D3F8DC400C220023EEE7B8F1DD
:10B600000A0FB3F8009018BFB3F802B0924B1D6850
:10B610002B682846DB6908BF4FF0000B984709F1FB
:10B62000FF318BB2834207D923680A220092D3F8F4
:10B63000DC5042464B4624E00AF107036A46DB0829
:10B64000A2EBC3039D46B8F10A0F6A460CBF0B2359
:10B650000D2302F8083F2B683A611B6A2846984779
:10B6600003689B6805469847B0F5205F2BD1BBF176
:10B67000000F0AD0236804220092D3F8DC500B227A
:10B680004B4679692046A847A9E72846FDF756FBAF
:10B6900080462846FDF74FFB424601460DF1090062
:10B6A00042F0BCFF08F101081FFA88F86B4B3A69B9
:10B6B000186803680092D3F8944079695FFA88F3B8
:10B6C0000422A0478BE742F6030398420AF1FF3AAF
:10B6D00040F09F802846FDF7BCFB48451ED1BBF1DA
:10B6E000000F02D023680B22A0E72846FDF736FBA7
:10B6F0003B6958702846FDF7AEFB3B6958802846E9
:10B70000FDF71CFB80462846FDF715FB4246014627
:10B7100003A842F083FF08F10408C5E72846FDF7B7
:10B720001DFB830702D4236802227FE72846FDF72A
:10B7300018FB10F0020022D0002204F1B0011C20FE
:10B7400000FB02F37E6931F803C0B44510D001322A
:10B75000052AF5D123680F220092D3F8DC307969ED
:10B760001E4642464B462046B04701231E4607E090
:10B77000234493F9C830002BECDA0023F6E70646A1
:10B780002846FDF7F5FA83B29B4502D323680722CA
:10B790004CE780B2A0EB0B008245A8BF82461FFA9F
:10B7A0008AF3BB6004F18C03A1467B604FF0010873
:10B7B0001FFA8AFAB9F8B0307A69934219D109F1BF
:10B7C000B40299F8B31007F11C00FDF76FF9CDF83A
:10B7D00000A03B695A46434407F11C012846FDF787
:10B7E00015FC07F11C00FDF7A9F8BB6898441FFA87
:10B7F00088F87B6809F11C099945DBD1002E3FF4DC
:10B8000055AF42463969201D42F008FF84F8848014
:10B81000E5E6B0F5245F1BD12846FDF785FC83B231
:10B820009B45B3D280B2A0EB0B08C2452846A8BF07
:10B83000C246FDF77BFC1FFA8AF200EB0B010AF10E
:10B84000010A0DF1090042F0E9FE1FFA8AF82DE71E
:10B850004FF001082AE700BF78120700D81207004E
:10B860002DE9F04F99B002AF1D4697F880303A604D
:10B87000012B04460E467B600DD8122D07D10368BC
:10B8800004220092D3F8DC402A460023A0475C370C
:10B89000BD46BDE8F08FD7F88430B3F80080914BF7
:10B8A000D3F800A0DAF800305046DB69984708F179
:10B8B000FF318BB283420CD9122DE8D123680A22C2
:10B8C0000092D3F8DC902A46434631462046C847CA
:10B8D000DDE7DAF8003050461B6A984703689B683A
:10B8E0008146984742F6030B584540F0A7804846EA
:10B8F000FDF7B1FA4045484601D1122D53D1FDF76D
:10B900002DFA020755D54846FDF72BFA10F0020A2A
:10B9100004F1B00B16D000221C2101FB02F33BF80E
:10B920000300B0424BD00132052AF6D123680F2222
:10B930000092D3F8DCA01222434631462046D0477D
:10B940004FF0010A00231C2101FB03F23BF8020027
:10B95000B0426FD17B68023B5FFA83FBD7F884303B
:10B96000A1180233B4327B6091F8B3102244BAF1CB
:10B97000000F4FD0032084F88500A4F8448084F899
:10B9800046101168C4F847109288A4F84B20BBF108
:10B99000360F4FF00A0284F84DB084F8852016D98E
:10B9A000236811228CE7FDF7D9F943077FF56FAFC4
:10B9B000A9E7122D7FF46BAF2368032280E72344AD
:10B9C00093F9C830002BB1DA4FF0000ABAE75A46B3
:10B9D000796804F14E0042F021FE94F885200BEBCB
:10B9E000020384F88530122D7FF451AF3B68073392
:10B9F0006D46DB08A5EBC3039D46132302AA8DF811
:10BA00000830BAF1000F62D02371012384F884302A
:10BA1000AD463CE707F10C00FDF748F848465B46A9
:10BA20007A6807F10C01FDF710FB07F10C00FCF739
:10BA300085FFD8E70133052B86D1D4E7D9F800304C
:10BA400048469B689847B0F5245FB2D14846FDF759
:10BA500075F90228ADD14846FDF76DF9028842F626
:10BA600002139A42A5D1DAF80030A8F102011B6A4C
:10BA70005046984703689B6881469847584598D137
:10BA800000221C2104F1B00001FB02F330F803C0D6
:10BA9000B44518D103F1B4022344224493F8B310FF
:10BAA00007F10C00FDF702F8D7F8843048465A88B1
:10BAB00007F10C01FDF7E9FA07F10C00FCF73EFF76
:10BAC0004FF0000A8FE70132052ADDD1F8E7064B77
:10BAD000186803680092D3F8944004220123314689
:10BAE000A04795E778120700D81207001F4B70B5E2
:10BAF000044640F8863B02F0B8FE04F1870002F0ED
:10BB0000B4FE1B4B04F1980503F110061868596840
:10BB10002A4603C20833B3421546F7D141F28833AF
:10BB20001721C4F8AC300023A4F8A810A4F83E31C3
:10BB3000C4F84031A4F8443104F1B40204F5A07013
:10BB40004FF6FF7522F8045C02F8023C02F8013C53
:10BB5000136093809181136113751C328242F1D17D
:10BB6000C4F85431C4F85831204670BD381107006C
:10BB70001C1107002DE9F04F00230446A7B098469A
:10BB80004FF0FF35B0301C264FF6FF7706FB03F26F
:10BB9000825A8A4208BF1D46BA4203F1010318BF08
:10BBA00008F10108052BF1D16B1C6ED01C236B43EF
:10BBB00003F1B4072344E619324693F8B3106846FC
:10BBC000FCF774FFB8F1010F2FD1314BD3F800808F
:10BBD0004FF0000942F6030BD8F800304046DB690D
:10BBE00098471FFA89FA82451AD2D8F80030514690
:10BBF0001B6A4046984703689B68824698475845A9
:10BC00000BD1694613A8FDF73BF95046002213A952
:10BC1000FDF73BFA13A8FCF791FE09F10109DBE7F8
:10BC20000023A4F83E31A4F84431D4F85881B8F187
:10BC3000000F08D0694613A8FDF722F913A8C047E2
:10BC400013A8FCF77BFE1C2303FB05434FF6FF7292
:10BC5000C3F8B0200022E251B280D3F8C400A3F8A8
:10BC6000C8201721A3F8C01083F8CA2083F8CB207E
:10BC700010B103685B6898471C2303FB054400234D
:10BC8000C4F8C4306846FCF759FE27B0BDE8F08F11
:10BC9000781207002DE9F04FA9B000F18C03064699
:10BCA000044601934FF000084FF6FF7AB4F8B01045
:10BCB000514559D0324B18680368D3F898309847EB
:10BCC0000546002850D104F1B4094A4694F8B3104F
:10BCD00002A8FCF7EBFE2B4B1F6808F101083B683C
:10BCE0003846DB6998471FFA85FB58451AD93B68E7
:10BCF00059461B6A384698470268926883469047BF
:10BD000042F6030398420BD102A915A8FDF7B8F833
:10BD10005846002215A9FDF7B8F915A8FCF70EFE44
:10BD20000135DCE70023A6F83E31A6F8443184F85B
:10BD3000B23084F8B330A4F8B0A0C9F80030A9F844
:10BD40000430D4F8C400C4F8BA30A4F8BE301723C5
:10BD5000A4F8C03010B103685B6898470023C4F8AA
:10BD6000C43002A8FCF7EAFD019B1C349C429DD123
:10BD7000B8F1000FD4BF0020012029B0BDE8F08F3A
:10BD8000D81207007812070030B5002300F1C8016F
:10BD90001C2404FB03F28D5CAD0703D51044B0F8FE
:10BDA000B00030BD0133052BF3D10620F9E770B5A3
:10BDB000002300F1B0041C2505FB03F2A65A8E42B5
:10BDC00004D00133052BF7D1002002E0104490F895
:10BDD000C80070BD10B5054C2046FFF787FE204611
:10BDE000034A0449BDE810403AF093BDD46E0020E8
:10BDF0000060002081A0020073B5002504460E46B5
:10BE000040F8041B10222946ADF804508DF8065066
:10BE100042F02CFC25752EB3304643F0E7FA451E60
:10BE2000002D237D19DB0F2B1FD8735D2D2B02D125
:10BE30000135023DF4E77219002112F8012C8DF84A
:10BE4000042001A810228DF8053043F05DFB237D0E
:10BE5000E218013310712375EBE7032B34BF022383
:10BE600010232375204602B070BD1023F9E7006847
:10BE7000704704307047007D704700002DE9F0479F
:10BE8000144C80464D1E4FF4AA594FF02D0A6A1CDF
:10BE90001AD018F8057010222146380904F03DFC2C
:10BEA0001022611C07F00F0004F037FC0C2D04F188
:10BEB000020606DC29FA05F3DB0744BFE61C84F81A
:10BEC00002A0013D3446E2E7002323700148BDE8AB
:10BED000F08700BF30700020007970472DE9F04FE7
:10BEE00089B090460DF1180B027A9DF848601F4604
:10BEF0000023054689460693ABF80430FAB99E4202
:10BF000014BF4FF0020A4FF0030A2B6828461B6942
:10BF10009847194BEA881C68002107202368009184
:10BF2000CDE90301CDE9011B2046D3F83CB0114611
:10BF30005346D84728B1002009B0BDE8F08F9A4693
:10BF4000E3E723684A461B6C414620469847002891
:10BF5000F1D123683A465B6C314620469847002869
:10BF6000E9D1236801219B6C204698470028E2D143
:10BF700001202871E0E700BFD8120700034B002121
:10BF80000171186803689B6C184700BFD81207003E
:10BF90002DE9F341124B1D682B6801221B6D0746EA
:10BFA0000E4628460021002498472B68CDE900441E
:10BFB000D3F84C8020231A4601212846C04768B98F
:10BFC000012179712B6886EA01021B6D284698478A
:10BFD000B0FA80F0400902B0BDE8F0812046FAE7EF
:10BFE000D8120700C180704701727047022908BF4C
:10BFF000C260704770B50B4D04461C30164604F005
:10C0000062FA294604F1280004F076FA294604F180
:10C01000340004F071FA2368314620465B69BDE8BC
:10C0200070401847585207002DE9F0410C4D044666
:10C030000F461C302946164604F05EFA394604F1D4
:10C04000280004F040FA294604F1340004F054FAC0
:10C050002368314620465B69BDE8F041184700BFC0
:10C06000585207002DE9F0410C4D04460F461C3094
:10C070002946164604F040FA294604F1280004F047
:10C080003BFA394604F1340004F01DFA23683146C6
:10C0900020465B69BDE8F041184700BF58520700D1
:10C0A0007FB5C36B04460D468BB10B6801A89B6935
:10C0B000984701A904F1340004F0D7FA064601A814
:10C0C00004F0A4F91EB90024204604B070BD636AD0
:10C0D00073B1294601A8FCF7FDFC01A904F11C007D
:10C0E00004F0A4FA064601A804F090F9002EEAD064
:10C0F000236B6BB1294601A8FCF762FD01A904F18D
:10C10000280004F0B2FA044601A804F07FF9DBE746
:10C110000124D9E738B50F4B03604FF420030E4DCF
:10C1200043600123037200230446C0E90333C0E9DE
:10C13000053329461C3004F0B4F9294604F12800DF
:10C1400004F0AFF9294604F1340004F0AAF92046BE
:10C1500038BD00BF381207005852070003688B42F1
:10C1600008D9436800228A4202D05B680132FAE7AC
:10C17000186870470020704770B504464068002575
:10C180002368AB4206D9466808213AF0E9FD01353B
:10C190003046F5E70023C4E90033A36070BD00001A
:10C1A00010B50A4B044640F8343B04F02FF904F173
:10C1B000280004F02BF904F11C0004F027F904F125
:10C1C0001000FFF7D9FF204610BD00BF381207004E
:10C1D00010B50446FFF7E4FF204640213AF0C0FDC9
:10C1E000204610BD70B50E4B054618680368002246
:10C1F0001B6D11460024984705F110066C712B69E0
:10C200009C4209D221463046FFF7A8FF10B10368CF
:10C210005B6898470134F2E73046FFF7ADFF70BD29
:10C22000D812070003688B4270B504461AD9002261
:10C23000406813468A42456803D0034601322846C7
:10C24000F8E7066863B96560A268824208BFA36028
:10C2500008213AF085FD2368013B2360304670BD1C
:10C260005D60F1E70026F9E72DE9F041074694B05B
:10C270000D46002401F110082B699C422AD2214668
:10C280004046FFF76BFF0646FCF7D7FC00B331468C
:10C2900001A8FCF7F5FD21464046FFF7C3FF1EB19C
:10C2A000336830465B6898472B6801A9DB6B2846EA
:10C2B000984750B101A93846FCF7E2FD01A8FCF708
:10C2C0003DFB384614B0BDE8F08101A8FCF736FB11
:10C2D0000134D1E73846FCF7D9FBF2E72DE9F04FFE
:10C2E000C568ABB004460F4692469B469DF8D08089
:10C2F0009DF9D8902DB3032922D11A46514604A89E
:10C30000FCF7D4FBCDF80090359B4246394604A893
:10C31000FCF76DFC236804A9DB6B2046984748B105
:10C3200004A917A8E468FCF7ABFD17A8A04717A855
:10C33000FCF704FB04A8FCF701FB2BB0BDE8F08F71
:10C34000002504F110032269AA420DD91846294696
:10C350000393FFF703FF5A4651460646FCF737FCA6
:10C36000039B002841D006BB23691F2B08D900215D
:10C3700004F11000FFF756FF10B103685B6898479F
:10C380004C203AF0D5FC5A4651460646FCF78EFB47
:10C3900008203AF0CDFC0023C0E90063636933BB99
:10C3A00060612569A0616B1C2361042F22D0CDF848
:10C3B0000090359B424639463046FCF718FC304623
:10C3C000FCF73BFC0028B8D0E368002BB5D0314621
:10C3D00004A8FCF755FD294604F11000FFF722FFE1
:10C3E000336830465B68984794E70135ABE7A3694B
:10C3F0005860D6E74B46359A41463046FCF708FC74
:10C40000DDE770B446799DF80C409DF9145026B1D3
:10C410000595039470BCFFF761BF70BC70470000C6
:10C4200010B5054C2046FFF775FE2046034A044927
:10C43000BDE810403AF06DBA58700020006000204E
:10C44000A1C10200406870474368994208D28368DE
:10C450000022914202D05B680132FAE71868704707
:10C460000020704773B5044630203AF061FC324931
:10C470000546FDF71DF9E56154203AF059FC002509
:10C480000646142302222D490095FCF733FD26624F
:10C4900054203AF04DFC02231A46064628490095DE
:10C4A000FCF728FD666230203AF042FC254906463A
:10C4B000FDF7FEF8A66254203AF03AFC202204234D
:10C4C000214900950646FCF715FDE662E069FCF798
:10C4D00038FC206AFCF735FC606AFCF732FCA06A85
:10C4E000FCF72FFCE06AFCF72CFCD4E90701FDF710
:10C4F00006F9616AE069FDF702F9D4E90A01FDF77E
:10C50000FEF8236811491B6920469847236829468D
:10C5100020465B69984723682046DB6A9847236872
:10C52000E1699B6A204698472368A16A9B6A204676
:10C5300002B0BDE8704018477C1207008112070066
:10C54000861207008B120700901207009512070051
:10C5500010B50446C06948B1FCF7F8FB30B9E06992
:10C5600010B103685B6898470023E361206A48B113
:10C57000FCF7ECFB30B9206A10B103685B689847A0
:10C5800000232362606A48B1FCF7E0FB30B9606ABF
:10C5900010B103685B68984700236362A06A48B1E2
:10C5A000FCF7D4FB30B9A06A10B103685B68984708
:10C5B0000023A362E06A48B1FCF7C8FB30B9E06A27
:10C5C00010B103685B6898470023E3622368204644
:10C5D000DB6ABDE810401847006AFCF72BBC07B5C2
:10C5E0000222ADF80610406A0DF10601FCF7C2FB0D
:10C5F00003B05DF804FB10B504460846FCF77DFB6C
:10C60000014628B1236820469B6ABDE810401847C0
:10C6100010BD2DE9F0410025074688462C463B68B1
:10C620003846DB699847A84211D93B6829461B6AFE
:10C630003846984703689B6806469847B0F5205FE0
:10C6400002D0464503D0264601353446E7E720466A
:10C650003CB1FCF773FB0228204604D1FCF76BFBCE
:10C660000088BDE8F081FCF766FB4089F9E700002F
:10C67000074A02600022C0E90122C0E90322C0E9A2
:10C680000522C0E90722C0E90922C262704700BF43
:10C69000A812070038B5044608200D463AF048FBBA
:10C6A0000023C0E9005363682BB960602368A06071
:10C6B0000133236038BDA3685860F7E72DE9F84FD0
:10C6C00004460D46084604F10408FCF73AFB2946E7
:10C6D0004046FFF7DFFF08203AF02AFB0023C0E9BD
:10C6E00000536369002B47D160612369A061013366
:10C6F000236123682046DB69984700271FFA80FBE7
:10C700002846FCF7ECFFB8423BD939462846FCF7EF
:10C71000E8FF0646FCF715FB31464046FFF7BAFF37
:10C7200023682046DB69984781B23046FCF78FFBCF
:10C730003046FCF706FB31464046FFF7ABFF4FF0B3
:10C7400000093046FCF78BFB484518D9494630466E
:10C75000FCF787FB8246FCF7F4FA51464046FFF7A8
:10C7600099FF23682046DB69984781B25046FCF761
:10C77000DFFC09F10109E4E7A3695860B5E7013777
:10C78000BEE723682046DB699847594682B22846AF
:10C79000BDE8F84FFCF79CBF70B504464068002523
:10C7A0002368AB4206D9466808213AF0D9FA013528
:10C7B0003046F5E70023C4E90033A36070BD70B5CF
:10C7C0000446406800252368AB4206D94668082124
:10C7D0003AF0C6FA01353046F5E70023C4E90033E4
:10C7E000A36070BD38B50546064B45F8103B0446BE
:10C7F000FFF7AEFE2846FFF7E2FF201DFFF7CCFF54
:10C80000204638BDA812070010B50446FFF7EAFF1E
:10C81000204630213AF0A4FA204610BD70B50446F7
:10C82000002523682046DB699847A8420FD9236872
:10C8300029461B6A204698470646FCF787FA20B926
:10C840001EB1336830465B6898470135E9E7201D23
:10C85000FFF7A2FF002523699D420BD263690022E6
:10C86000954202D05B680132FAE71868FCF77EFF58
:10C870000135F0E704F11000FFF7A1FF70BD0000E3
:10C8800008B5054B1846FFF7F3FE044A044918465D
:10C89000BDE808403AF03DB89870002000600020E4
:10C8A000E5C70200704700000023C0F80831024BC2
:10C8B000186803681B68184714140700024B1868AF
:10C8C00003685B68184700BF141407000368002161
:10C8D0005B69184710B40368D3F8A4400023A4464A
:10C8E0001A4640F603415DF8044B604737B50368CC
:10C8F000ADF80610D3F8A45002220DF1060341F260
:10C9000005410446A84750B9D4F81832BDF80620AE
:10C910001988914203D193F9020003B030BD7F2002
:10C92000FBE713B5CDE9002303680822D3F8A44040
:10C9300040F601416B46A04702B010BD13B5CDE9EA
:10C94000002303680822D3F8A44042F201016B4699
:10C95000A04702B010BD10B40368D3F8A44006226B
:10C960000B46A44642F205015DF8044B60471FB533
:10C97000089C8DF804309DF818308DF805309DF82E
:10C980001C308DF806302368CDF80730A388ADF849
:10C990000B309DF824308DF80D309DF828308DF83F
:10C9A0000E300368ADF80010ADF80220D3F8A440B3
:10C9B0000F226B4642F20601A04704B010BD13B52A
:10C9C00003688DF80710D3F8A44001220DF1070386
:10C9D00042F20A01A04702B010BD13B5ADF8033012
:10C9E0009DF810308DF805309DF814308DF8063024
:10C9F00003688DF80010ADF80120D3F8A440072299
:10CA00006B4642F20B01A04702B010BD13B503689C
:10CA10008DF804108DF80520D3F8A440022201AB54
:10CA200042F20C01A04702B010BD10B588B00B9CBB
:10CA30008DF808309DF828308DF809302368CDF83E
:10CA40000A30A388ADF80E309DF830308DF81030E4
:10CA5000BDF83430ADF81130BDF83830ADF81330D2
:10CA6000BDF83C30ADF81530BDF84030ADF81730AA
:10CA7000BDF84430ADF81930BDF84830ADF81B3082
:10CA80000368ADF80410ADF80620D3F8A4401922CD
:10CA900001AB42F20D01A04708B010BD10B403680D
:10CAA000D3F8A4400023A4461A4642F20E015DF8D2
:10CAB000044B60471FB5ADF80430BDF81830ADF831
:10CAC0000630BDF81C30ADF808300423ADF80A304C
:10CAD0000623ADF80C300368ADF80010ADF8022065
